:020000040802F0
:1000000030DA01200104020841720208416202084C
:10001000D1700208F52D0208B5C4020800000000E6
:100020000000000000000000000000003D03020886
:10003000612F020800000000D5030208E503020852
:100040001B0402081B0402081B0402081B0402080C
:100050001B0402081B0402081B0402081B040208FC
:100060001B0402081B0402081B0402081B040208EC
:100070001B0402081B0402081B0402081B040208DC
:100080001B0402081B0402081B0402081B040208CC
:100090001B0402081B0402081B0402081B040208BC
:1000A0001B0402081B0402081B0402081B040208AC
:1000B0001B0402081B0402081B0402081B0402089C
:1000C0001B0402081B0402081B0402085D770208D7
:1000D000957802081B0402081B0402081B0402088E
:1000E000652F02081B0402081B0402081B040208F7
:1000F0001B0402081B0402081B0402081B0402085C
:100100001B0402081B0402081B0402087D79020874
:100110001B0402081B0402081B0402081B0402083B
:100120001B0402081B0402081B0402081B0402082B
:100130001B0402081B0402081B0402081B0402081B
:100140001B0402081B0402081B040208C9730208EE
:100150001B0402081B0402081B0402081B040208FB
:100160001B0402081B0402081B0402081B040208EB
:100170001B0402081B0402081B0402080000000004
:100180001B0402081B04020800F002F800F0C0F88B
:100190000AA090E8000C82448344AAF10107DA45E2
:1001A00001D100F0B5F8AFF2090EBAE80F0013F074
:1001B000010F18BFFB1A43F00103184760910400B8
:1001C000909104000A444FF0000C10F8013B13F02A
:1001D000070408BF10F8014B1D1108BF10F8015BA0
:1001E000641E05D010F8016B641E01F8016BF9D193
:1001F00013F0080F1EBF10F8014BAD1C0C1B09D1EA
:100200006D1E58BF01F801CBFAD505E014F8016B5B
:1002100001F8016B6D1EF9D59142D6D370470000ED
:100220000023002400250026103A28BF78C1FBD8FF
:10023000520728BF30C148BF0B6070476E2900F0DD
:100240001F87702901F0698066293EF08A8665293A
:100250003EF0878667293EF0848661293EF08386DA
:1002600003681B0A28BF41F08001692900F0CC8691
:10027000642900F0C986752900F0C6866F2900F050
:10028000F787782901F03580E92900F09187E42982
:1002900000F08E87F52900F08B87EF2900F0F487B6
:1002A000F82901F034800368DB0928BF41F08001A0
:1002B000632901F09D87732901F0A287E32901F0EA
:1002C000AD87F32901F0B287002070471FB53EF0DB
:1002D0003BFE9DE8030000F0FDFD02F047FA04003C
:1002E000002000213EF01AFE401C6060002000212A
:1002F0003EF0FEFDE06001F079F900F01DF88DE8B8
:100300000F001FBD10B501F0E9F902F034FA10BD7D
:1003100002F0FEF9114603B40EF08EF903BCFFF7AC
:10032000D5FF18F059FB02F031FC03B4FFF7EAFFE8
:1003300003BC0EF0BDF9000001F079BA1EF0040F05
:100340000CBFEFF30880EFF30980816911F8021CFC
:1003500091BB01B590E80F10E047BDE800508CE874
:100360000300244B93E80600914208BF704741B94F
:100370001EF0100F10D12049086820F0010008601D
:100380000AE02CE9F00F1EF0100F08BF2CED108AC8
:10039000C1F838C081F822E01A6092F82210906B00
:1003A00061F0FF0E1EF0100F08BFB0EC108AB0E82D
:1003B000F00F80F309887047104A13689942FAD801
:1003C00001B552F821C00FC8E047BDE80050CCF895
:1003D0000000704701B519F05DFBBDE80140EFF387
:1003E000098CBEE701B51AF013F9BDE80140EFF33F
:1003F000098CB6E76807002034EF00E0E0580608F3
:100400000948804709480047FEE7FEE7FEE7FEE7A8
:10041000FEE7FEE7FEE7FEE7FEE7FEE704480549E4
:10042000054A064B70470000858B020889010208C7
:1004300030DA002030DA0120305A0120305A012011
:1004400070B5A0FB0140B4F1805170F1000024BFF1
:10045000002070BD204600F04CF805001CBF21466E
:1004600000F08EFC284670BD0B3020F0070070476E
:100470002DE9F04117460E460446FFF7F5FFA0426E
:10048000054633D9002F1CBF06F10C000EF084F88E
:1004900030467468F4B12168A94217D305F1080207
:1004A00091423CBF6168416007D3626861194A604C
:1004B0002268521B0A6041602560002F1CBF06F1B4
:1004C0000C000EF0A7F8201DBDE8F08120466468FE
:1004D000002CE0D12946304600F0E8FC0028D7D1B6
:1004E000002F1CBF06F10C000EF094F80020BDE8B0
:1004F000F08110B5044600F0D0FC01682046BDE84C
:1005000010400122B4E770B516460D46041F0028BE
:1005100008BF70BD002E1CBF05F10C000EF03CF8AA
:100520002B465868002818BFA04238BF0346F8D3AE
:100530001968CA18A24218BF5C6003D122681C4621
:100540001144196021680A19824218BF606004D101
:1005500042686260006808442060002E1CBF05F1FC
:100560000C000EF057F870BD10B5044600F095FC75
:1005700001682046BDE810400122C4E753EA020C9E
:1005800000F069802DE9F04B4FF00006002B1FBFF3
:10059000B3FA83F503FA05F424FA05F65E4012BFB8
:1005A0001643B2FA82F502FA05F4C5F120051EBF22
:1005B00022FA05FC44EA0C04203556EA044C4FEAC2
:1005C000144418BF641C4FF000084FF0000990421B
:1005D00071EB030C39D3002919BFB1FA81F701FA85
:1005E00007F6B0FA80F700FA07F6C7F120071EBF3A
:1005F00020FA07FC46EA0C062037B6FBF4FCA7EB12
:100600000507103F07F01F0BCBF120062CFA06F66A
:100610000CFA0BFB44BFB3460026202FA4BF5E4656
:100620004FF0000B5BEA060C08BF4FF0010B19EB13
:100630000B0948EB0608ABFB027C06FB02CC0BFB6C
:1006400003CCC01B71EB0C01C1E70B4602464146CF
:100650004846BDE8F08B13B54FF000004FF00001A5
:10066000AFF30080BDE81C40704700000FB40449A0
:1006700010B503AA029802F0C7F810BC5DF814FB8D
:10068000D80B00200FB4014610B504AA039802F05D
:10069000BBF810BC5DF814FB0FB41CB5084B06AAE0
:1006A0007B4469460090059800F003FD0446002055
:1006B000694600F011FD20461CBC5DF814FB0000EB
:1006C000350A00000FB47CB50C0009AA009001D0D7
:1006D0002044401E084B7B4469460190089800F076
:1006E000E8FC05461CB10020694600F0F5FC2846F0
:1006F0007CBC5DF814FB0000090A00002DE9F04104
:10070000044616460D464769007B80072ED03846C2
:100710000DF0FEFF50BB3EB3012E02D0022E25D1BC
:1007200004E0204600F0C8FE05441DE038460DF008
:10073000C5FFE168002841F01001E16005DA2046BC
:1007400000F0DCFE0120BDE8F081C9030BD5626832
:10075000E16A914200D81146A26911442269891ABE
:10076000814200DD08460544002D01DA0220EAE757
:10077000E16A6068E268814206D29103E06203D5D3
:1007800022F4003141F01002A6690027AE4213DCCA
:10079000E16A814201D90B4600E0034603EB060CF7
:1007A0002369ACEB030CAC4506DD814201D98C46D4
:1007B00000E084469C4505D1A760276042F02000F8
:1007C000A5620DE0AD1BE669AE1B8142A66000D9B3
:1007D0000846C01A281A20605819606022F02000CC
:1007E00003490840E060002084F84870ABE700004F
:1007F000BFCFD7FF2DE9F04704464FF000094FF077
:10080000FF37C568D4E90486A80707D0204600F062
:10081000A9FE30460DF018FF002802DA3846BDE880
:10082000F087280502D54046FFF79EFE4C21204662
:1008300000F0C8FA206D20F0010020654846EEE780
:1008400070B505460A4E30460DF0A6FE05F14C0483
:1008500020460DF0A1FE2846FFF7CCFF05462046B6
:100860000DF0D8FE30460DF0D5FE284670BD0000D4
:100870001C0500202DE9F04116460F46054600F103
:100880004C0420460DF088FE324639462846FFF7D4
:1008900035FF054620460DF0BDFE2846BDE8F08137
:1008A0002DE9F041044600F14C0738460DF074FE86
:1008B000E068810712D0800601D5A66A04E0A1692C
:1008C000606808442169461A204600F04BFE002269
:1008D000054631462046FFF711FF00E00025384667
:1008E0000DF098FE2846BDE8F0812DE9F04118B1E1
:1008F000BDE8F041FFF7D4BF0B4E002530460DF0A8
:100900004BFE0A4C6F1E07E02046FFF7C9FF00B1FF
:100910003D46206D20F00104002CF5D130460DF04D
:1009200079FE2846DFE700001C050020840B00202C
:1009300070B50D46044600F14C0630460DF02CFE15
:10094000204600F0B9FD411C0CD0C117C5E90001DB
:10095000A06BA860E06B0024E86030460DF05AFE02
:10096000204670BD0446F8E72DE9F0471646884654
:10097000814602F14C0738460DF00EFE3046FFF777
:1009800039FF18F8010B61280AD0722802D07728A5
:100990003FD102E00125002405E00225042402E005
:1009A000082448F2020518F8010B2B2806D062280B
:1009B00009D018F8010C74280AD00BE045F00305A3
:1009C00044F00204EFE745F0040544F00104EAE7CF
:1009D00044F01004484621460DF0C0FE411C18D0DA
:1009E0000021316171604FF40071F560F161706157
:1009F000200704D5304602220021FFF77FFE306D2C
:100A000040F00100306538460DF004FE3046BDE888
:100A1000F0870026F7E72DE9F04115460E46074618
:100A2000204C20460DF0B8FD2A4631463846FFF7E7
:100A30009BFF054620460DF0EDFD2846BDE8F08100
:100A40002DE9F0410E468046164D28460DF0A4FDD6
:100A5000154C206DC10704D0410804D020F00104DA
:100A6000F7E7224612E05420FFF743FD070017D0B6
:100A7000206D47F00101084354212065384600F0FD
:100A8000A1F907F14C000DF0A7FD3A46314640466A
:100A9000FFF76AFF044628460DF0BCFD2046CDE76F
:100AA0000024F8E71C050020840B002040EA010325
:100AB000024630B59B0710D14FF0013400E008C268
:100AC00008C91D1B9D4315EAC41FF8D013F0FF0190
:100AD00002F8011B0DD01B0AF8E711F8013B002BAF
:100AE00002F8013B05D011F8013B002B02F8013B55
:100AF000F3D130BD10B5431C02E010F8011B71B1F9
:100B00008107FAD14FF0013202C88C1A8C4314EAE3
:100B1000C211F9D0C01A0A0603D0C01E10BDC01AF7
:100B200010BD0A0401D0801E10BD0902FCD0401E79
:100B300010BD40EA010370B59B072ED14FF001367E
:100B4000042A2AD308C810C99D1B9D43121F15EA09
:100B5000C61517D0D8B2E1B2401A50EA056110D1DB
:100B600098B2A1B2401A50EA05410AD123F07F4061
:100B700024F07F41401A50EA052102D1180EA0EB63
:100B8000146070BDA342DBD018BA21BA884201D9E3
:100B9000012070BD4FF0FF3070BD0AB9002070BD5C
:100BA00010F8013B11F8014B63B1A3420AD1521E68
:100BB00008D010F8013B11F8014B1BB1A34201D141
:100BC000521EEDD1181B70BD421E12F8013F002BC2
:100BD000FBD111F8013B002B02F8013BF9D1704722
:100BE000032A40F2308010F0030C00F0158011F859
:100BF000013BBCF1020F624498BF11F801CB00F831
:100C0000013B38BF11F8013BA2F1040298BF00F884
:100C100001CB38BF00F8013B11F0030300F06B80FB
:100C2000083AC0F0088051F8043B083A51F804CB68
:100C3000A0E80810F5E7121D5CBF51F8043B40F82E
:100C4000043BAFF30080D20724BF11F8013B11F839
:100C500001CB48BF11F8012B24BF00F8013B00F87D
:100C600001CB48BF00F8012B7047431A28BF9A42B6
:100C70007FF6B6AF10441144032A40F2268010F0EC
:100C8000030F1EBF11F8013D521E00F8013D10F088
:100C9000030F7FF4F6AF11F0030300F09E85083ACE
:100CA000C0F00B8051F8043D083A51F804CD40F8EB
:100CB000043D40F804CDFFF7F3BF121D5CBF51F8AF
:100CC000043D40F8043DAFF30080D20724BF11F883
:100CD000013D11F801CD48BF11F8012C24BF00F8E7
:100CE000013D00F801CD48BF00F8012C704701B567
:100CF000FFF776FF01BD10B5203AC0F00B80B1E8D8
:100D00001850A0E81850B1E81850A0E81850203A40
:100D1000BFF4F5AF5FEA027C24BFB1E81850A0E849
:100D2000185044BF18C918C0BDE810405FEA827C63
:100D300024BF51F8043B40F8043B08BF7047D2077A
:100D400028BF31F8023B48BF11F8012B28BF20F81B
:100D5000023B48BF00F8012B704701B501F0FF03CB
:100D6000114643EA032242EA024200F00BF801BDB9
:100D700002F0FF0343EA032242EA024200F002B813
:100D80004FF000020429C0F0128010F0030C00F0B4
:100D90001B80CCF1040CBCF1020F18BF00F8012B32
:100DA000A8BF20F8022BA1EB0C0100F00DB85FEA00
:100DB000C17C24BF00F8012B00F8012B48BF00F8CC
:100DC000012B70474FF0000200B51346944696463B
:100DD000203922BFA0E80C50A0E80C50B1F120014E
:100DE000BFF4F7AF090728BFA0E80C5048BF0CC0FC
:100DF0005DF804EB890028BF40F8042B08BF70475A
:100E000048BF20F8022B11F0804F18BF00F8012BCB
:100E1000704700000000000030B44FF0013C50F873
:100E2000042B51F8043BCCFA52F4D51A20D1FCB96A
:100E300050F8042B51F8043BCCFA52F4D51A17D1D0
:100E4000B4B950F8042B51F8043BCCFA52F4D51A3B
:100E50000ED16CB950F8042B51F8043BCCFA52F483
:100E6000D51A05D1002CDAD030BC4FF00000704705
:100E700029BAB1FA81F111F01801D1F120008440B2
:100E8000F2D1CA40CB4012F0FF0213F0FF0330BC96
:100E9000D01A704770477047704710B500F04CFD8E
:100EA000083010BD704770477047704738B504462A
:100EB0000A4600206946AFF30080002808BF38BD0D
:100EC00002460099204600F03FFD012038BD012078
:100ED00001F017BCF8B5AFF30080054600200C46C2
:100EE000102000BF0646A819A0420DD93246694617
:100EF0000020AFF30080070008BF01F002FC00985B
:100F0000A04218BF0546C419FFF7C7FF0560074692
:100F1000F01D20F007004619284600F00AF8B442F8
:100F200008BFF8BDA21B31463868BDE8F84000F0A4
:100F30000BBD00210160C0E901100C300DF04CBB6D
:100F40001020704770B5044685690068C10601D558
:100F5000302600E02026C00707D070BDD4E901216B
:100F600030469047206A401C20626D1EF6D570BD49
:100F700070B5044685690078C00707D170BDD4E913
:100F8000012120209047206A401C20626D1EF6D56A
:100F900070BD09684A0501D540B27047C905FCD546
:100FA00000B2704709684A0501D5C0B27047C9054B
:100FB000FCD580B2704770B50C460546012A05D0B5
:100FC0002878800600D5EA69002302E0012305E0C5
:100FD0005B1C934202D2E05C0028F9D1A869E618B4
:100FE000C01AA861286A184428622846FFF7AAFF99
:100FF00004E0D5E9012114F8010B9047B442F8D37D
:101000002846FFF7B5FF70BD2DE9F04106460024E4
:1010100010687529314616A510D0FFF7BAFF0028D1
:1010200002DA404213A507E031688A0701D512A50C
:1010300002E0490704D511A5012401E0FFF7B2FF42
:1010400000210A2206F1240709E0B0FBF2FCB0FB04
:10105000F2F302FB1C00303078541846491C00287B
:10106000F3D123462A463046BDE8F04100F0D0BC1B
:10107000000000002D0000002B00000020000000F8
:1010800011680268006A530501D508700AE0D305AB
:1010900001D5088006E0130603D5C217C1E9000296
:1010A00000E008600120704701694A1C026108786D
:1010B000704700B58FB0CDE9013100210591054998
:1010C0007944CDE903101146684600F031F90FB0BC
:1010D00000BD0000E5FFFFFF0A6802F8010B0A608F
:1010E0007047D1E900239A4202D2531C0B60107062
:1010F000704700002DE9FF5F15468A460446DFF879
:10110000AC80F8440027D8E900103E46CDE9001035
:1011100010E03AF816106A4602A801F0C7FA411C1E
:1011200007D02178890603D5E269391891420DD894
:101130000744761C2078800602D5E069B84205DDB8
:10114000AE42E6DB3AF816000028E2D1A069C01BE7
:10115000A0612046FFF7F6FED8E90010CDE90010A7
:10116000002017E03AF818106A4602A801F09EFA2B
:10117000B0F1FF3F81460BD000250DF1080B05E0D3
:10118000D4E901211BF8050090476D1C4D45F7D3AC
:1011900008F10100B0428046E4DB206A3844206256
:1011A0002046FFF7E5FEBDE8FF9F00007A3304000C
:1011B0002DE9F0418046D21D22F007020025D2E938
:1011C0000002F52915A614D0011E72F1000106DAFD
:1011D0000023D0EB030063EB020211A608E0D8F86D
:1011E00000108B0701D50FA602E0490701D50EA616
:1011F00001251146002408F1240704E000F0C3FB98
:1012000030323A55641C50EA0102F7D12B4632467F
:1012100021464046BDE8F04100F0FABB0000000066
:101220002D0000002B0000002000000030B4002141
:1012300000F1240408E002F00705D208303542EA44
:101240004372DB086554491C52EA0305F3D1046874
:10125000002310A2250708D504F020040C4304D075
:10126000C46901230CA2641EC46130BC00F0D0BB71
:1012700010B5044621461068FFF794FE024620464A
:10128000BDE810400023D1E7D21D22F00701D1E9CB
:101290000023CBE70000000030000000F0B40D4652
:1012A0000188090502D5214C7C4402E01F4C7C4496
:1012B0000E34002100F1240608E002F00F071209A5
:1012C000E75D42EA03721B097754491C52EA03079F
:1012D000F3D102780023120704D5702D06D009B18E
:1012E000022311342246F0BC00F092BB01231034DB
:1012F000F8E770B504460D4621461068FFF752FE28
:10130000024629462046BDE870400023C6E7D21DAC
:1013100022F00703D3E90023C0E70368126843F013
:10132000200303600823C3610023B7E7DC31040016
:101330002DE9F05F894604464FF0000ADFF874B1EA
:10134000FB44C0F820A02046E1688847002874D0FC
:10135000252806D0D4E901219047206A401C20624C
:10136000F1E700265F462046E168884720280546C9
:1013700007DB312D05D2781910F8200C08B106438F
:10138000F1E7B00701D526F00406C4F81CA0002739
:10139000C4F818A02A2D09D028463BF0BFFE38B368
:1013A00004EB8708303DC8F8185019E059F8041BC1
:1013B000204604EB87029161E1688847012F0546CA
:1013C00018D1E069002820DA26F020061DE0D8F8C0
:1013D000180000EB800005EB40003038C8F818001A
:1013E0002046E168884705463BF098FE0028EED18C
:1013F000012F0AD02E2D08D12046E16888477F1C96
:101400000546022F46F02006C4DBA069002803DA57
:10141000404246F00106A061F00701D026F0100618
:101420006C2D0BD0682D09D04C2D39D06A2D35D0BC
:10143000742D35D07A2D33D016E038E0E1682F4690
:1014400020468847B842054609D16C2F26D04FF474
:101450008060E168064320468847054604E06C2F1B
:101460001AD04FF4807006430DB3A5F1410019283E
:1014700002D8203546F400664A46294620462660B2
:101480004E46FEF7DBFE80B101280BD0F61D26F09C
:10149000070000F1080956E74020E4E78020D8E77C
:1014A0000020D6E706F104094DE7284652E7206AF6
:1014B000BDE8F09F6C31040010B50146C26890078A
:1014C00003D0900607D5886A0AE000F039FA0121B6
:1014D0000160881E10BD8B69486818440B69C01AEA
:1014E00091F848301BB191F84910401A10BD110312
:1014F000FCD50028FADD401E10BD0000C16821F4B3
:10150000001141F08001C1600021816001607047DD
:101510002DE9F047814614460E464FF0FF38324819
:10152000D5685769054209D03846A1690DF0B0F970
:10153000002811DB2C48C0430540E5602B463246AD
:10154000494638460DF0D4F9A16920F00042B21A9C
:1015500011440028A16103D02046FFF7CFFF404689
:10156000BDE8F08770B504460569C06A61688842C5
:1015700000D80846E16821F42011E160C90312D5C2
:10158000A84208D02246411B2846FFF7C1FF10B1F0
:101590004FF0FF3070BD0020E562C4E90150E06803
:1015A00020F48030E060002070BD10B50446C068B3
:1015B00020F02000E060A16AA06988420DD020469A
:1015C000FFF7D0FFE06820F4405040F01000E060EA
:1015D000A06AA0612069E062606044F24001E068B6
:1015E0008843E06010BD00001000020010B565489F
:1015F0005421FFF7E7FB64485421FFF7E3FB6348FE
:101600005421FFF7DFFB62485E49624A624B01608A
:101610005D4810605D4A1A60431C0B65511C0165F2
:101620000120106557484C300CF0D6FF56484C301E
:101630000CF0D2FF55484C300CF0CEFF57480CF060
:10164000CBFF58484F4A56A17844FFF7E4F920B938
:10165000544878440A3801F04DF854484A4A52A197
:101660007844FFF7D8F920B9504878440A3801F097
:1016700041F84F48454A4CA17844FFF7CCF920B9CE
:101680004B4878440A3801F035F840233D48DC00E7
:101690000021224600F0D6FF20B142487844543859
:1016A00001F028F8384822464023002100F0CAFF04
:1016B00020B13E487844543801F01CF833482246A3
:1016C0001023002100F0BEFF002806D038487844DF
:1016D000BDE81040563801F00DB810BD2B482DE97B
:1016E000F041006D2D4E20F0010430460CF054FF07
:1016F000244D4C3528460CF04FFF2248FFF77AF86E
:1017000028460CF087FF28460CF05AFF1E4D4C353A
:1017100028460CF041FF1C48FFF76CF828460CF0F7
:1017200079FF28460CF04CFF184D4C3528460CF03C
:1017300033FF1648FFF75EF828460CF06BFF28468B
:101740000CF03EFF14E0206D20F0010504F14C0088
:1017500007460CF021FF2046FFF74CF838460CF006
:1017600059FF38460CF02CFF2046FEF7FDFE2C46B4
:10177000002CE8D130460CF04DFF08480CF020FF5B
:10178000BDE8F081840B0020D80B00202C0C002039
:101790001005002014050020180500201C0500205D
:1017A0007200000048320400770000003732040065
:1017B00010320400431A28BF9A427FF69CAA1044B4
:1017C000114410F0030F1EBF11F8013D521E00F826
:1017D000013D10F0030F7FF4F6AF103AC0F00A801D
:1017E00010B531E9185020E91850103ABFF4F9AF9C
:1017F000BDE81040530724BF31E9081020E9081064
:1018000044BF51F8043D40F8043D12F0030F08BFF7
:101810007047D20728BF31F8023D48BF11F8012CAC
:1018200028BF20F8023D48BF00F8012C70472DE981
:10183000FE4F00274FF48074BA4620468DF80070A2
:10184000FEF757FE5FEA000801D100F05AFF21467B
:1018500040460CF023FF060009D04FF0010B45462F
:10186000C14616F8014B8FB15C2C16D01CE008F174
:1018700008004146C8F800000020C8F80400D8F865
:1018800000402070012003B0BDE8F08F222C01D071
:10189000272C0FD12746BA462CE03078222807D0D3
:1018A0005C2805D0272803D0BC4203D1002721E0C3
:1018B000761C04464CB12FB9202C06D0A4F10900A7
:1018C000042802D905F8014BCBE74D4502D1BAF106
:1018D000000F0FD052464946002005F8010B68461C
:1018E000AFF300809DF8000068B14D464FF0000A4C
:1018F0000BF1010B002CB4D14FEA8B00FEF7F9FD80
:10190000040002D004E0A946F0E7002000F0F9FE50
:1019100000264046C4F8008005E010F8011B11B90C
:10192000761C44F82600A842F7D32146002044F84C
:1019300026003046A7E7000000487047800C0020D2
:101940000BF00CBF7047704730B404468C464368B8
:10195000002B18BF634538BF1846F8D303681844F6
:10196000604507D0C81C20F0070000F1040CACEB68
:101970000100121A2146CCF8002030BC00220CF1E4
:101980000400FEF7C0BD30B5B0F10A0271F10003EA
:101990004FEA900E4EEA817EB0EB0E0061EB9101B2
:1019A0004FEA101E4EEA017E10EB0E0041EB1111C2
:1019B0004FEA102E4EEA016E10EB0E0041EB1121A2
:1019C0004FEA104E4EEA014E10EB0E0041EB114172
:1019D000401841F100014FEAD00040EA41704FEA5F
:1019E000D1014FEA810444EA907410EB800544EB86
:1019F00001046D1944EB0404521BA3414FF0000392
:101A000048BF0A3200D530BD401C41F1000130BD55
:101A10002DE9F0470D4699469246044600F1240808
:101A20000168880604D5E06921F01001216000E01A
:101A30000120A84201DD471B00E00027A1697A19B7
:101A400002EB0900081AA0612078C00602D42046E3
:101A5000FFF778FA002608E0D4E901211AF8060019
:101A60009047206A401C761C20624E45F4DB2078AB
:101A7000C0060AD52046FFF765FA06E0D4E9012141
:101A800030209047206A401C2062381EA7F10107D1
:101A9000F4DC07E0D4E9012118F805009047206A3A
:101AA000401C2062281EA5F10105F3DC2046FFF74B
:101AB0005FFA2078000602D50220BDE8F0870120F9
:101AC000FBE72DE9FF4F0C461E464FF0FF378BB06A
:101AD000D2E90001DDF860800A908A46C1F30A5518
:101AE00005B93D46002108464FF00000BAF1000F4D
:101AF00000F4400005DA00EB80004FF4400101EAF9
:101B000050004FEA9059B9F1010F00DDB9460A982B
:101B100050EA4A000ED044F61050A5F2FF35454376
:101B20002F14B8F1000F1ED07542291E1EDDC9F119
:101B300000021CE0B8F1010F4FF0000001D030218D
:101B400003E0F24305E02154401CB042FBDB304689
:101B50000022002121540B99C1F80880C1E900201E
:101B60000FB0BDE8F08FBD1B6D1CDEE74A4600DA02
:101B7000694206A800F068FE06AB93E8070003ABD5
:101B800083E8070050460A992AF0CFF98DE807004C
:101B9000A0F500501F3800900398002D0ADD42F296
:101BA0001F014A460844002303A9039068462AF00F
:101BB00038FC09E0A0F500504A461F38002303A96D
:101BC000039068462AF042FC8DE807000004000CF0
:101BD00003D04FF0FF30410800E01046B8F1000F8D
:101BE00003D00022009215461EE0751E05D4FFF7B3
:101BF000CAFE303262556D1EF9D5B3460122084344
:101C000002D000227F1C04E02078302801D100227D
:101C10007F1E002A099784D01DE0112D07DAFFF7F7
:101C2000B2FE303262556D1C50EA0102F5D1084314
:101C300002D00098C8B10EE00021681E05E0235CC8
:101C4000625C63542254401E491C8142F7DBAB4660
:101C5000A81B401E0990002004F80B000B98099A5D
:101C6000C0F80880C0E9002B7AE711264FF0000881
:101C700057E72DE9F04F88460446D21D22F00701B0
:101C800091B0D1E90001CDE90A013BF03FF80246ED
:101C90000B98C00F01D02D2007E02068810701D5E7
:101CA0002B2002E0202101EAC000032A099001D084
:101CB000072A05DB03464146204600F065FD0BE19F
:101CC0002078800601D5E06900E00620B8F1650FB4
:101CD000814606D0B8F1660F18D0B8F1670F70D101
:101CE00031E00020B9F1110F009001DB112301E078
:101CF00009F101030AAA01A90CA8FFF7E2FEDDE938
:101D00000C70002609F10105834647E001204B468F
:101D100000904FF000470AAA01A90CA8FFF7D1FED6
:101D2000DDE90DB00C995D46002610B909F10100FE
:101D30000D18B9EB050003D4C0F1FF3609F1010518
:101D4000A5EB09002BE0B9F1010F01DA4FF0010911
:101D50000020B9F1110F0090484601DD112300E089
:101D600003460AAA01A90CA8FFF7ABFEDDE90C7037
:101D70004D4600268346207800070AD4AB4500DA9A
:101D80005D4601A8012D04DD411911F8011C30291F
:101D900007D04F4502DA17F1040F04DA012082461A
:101DA0000FE06D1EEEE7002F02DCED1B3E4403E06A
:101DB000781CA84200DD7D1CB81B00F1010A4FF021
:101DC00000472078000703D4AA4501DB4FF0FF3A13
:101DD0000021B7F1004F0DF143088DF8431024D0D6
:101DE00002202B23002F01DA7F422D230A21021E1D
:101DF000A0F1010000DC5FB197FBF1FC97FBF1F271
:101E000001FB1C7C17460CF1300C08F801CDEEE705
:101E1000A8F1010003702188090501D5452100E0E2
:101E20006521A0F1010800F8011C09980FA9A1EB98
:101E30000807FF1D00B10120411901EBEA70A169FB
:101E40003844081A401EA0612078C00602D42046FB
:101E5000FFF778F8099828B1D4E901219047206A62
:101E6000401C20622078C00622D52046FFF76AF881
:101E70001EE0002E04DBB34502DD01A8805D00E01A
:101E80003020D4E901219047206A401C2062761C52
:101E9000AAF101005FEA000A0AD100F067FCC068FD
:101EA0000168405CD4E901219047206A401C20620F
:101EB000281EA5F10105DCDC07E0D4E9012118F8B2
:101EC000010B9047206A401C2062381EA7F10107D1
:101ED000F3DC2046FFF74CF8032011B041E6000088
:101EE0002DE9F04F04460D46D21D22F0070089B0BF
:101EF000D0E90097484639463AF008FF0246F80F05
:101F000001D02D2307E02068810701D52B2302E0B3
:101F1000202101EAC0038DF820300BB1012000E040
:101F20000020032A824601D0072A04DB29462046E6
:101F300000F02AFC3FE12078800601D40D2500E066
:101F4000E569C7F30A560D2D49DA00214FEA175B00
:101F500008464FF00000002F00F4400007DA00EBC5
:101F600080004FF4400100EBD07001EA6000811561
:101F7000012901DD4FF0FF3100224FEA850CBCF151
:101F8000180F06D31346ACF118004FF08052C24030
:101F900003E04FF4801323FA0CF30CF10C0CBCF1AA
:101FA000200F04D3ACF1200C09FA0CF001E007FA81
:101FB0000CF000294FF0004801DD18B90FE00ED1F8
:101FC00040450CD319EB02095F4121B9404502D1CC
:101FD0009F4329EA0209BBEB175F00D0761C2088DB
:101FE000000502D57B48784402E07A4878441938E5
:101FF00008AA302302F80A30037C0AF10101002EFE
:102000000AF1020A53546A4602DC4FF0300101E043
:102010004FF031014FF001088DF8001002D0A6F208
:10202000FF3603E059EA470100D06B4E002D02DC79
:102030002178090704D54FF002082E218DF80110F0
:10204000C44600210BE0C7F303433F01C35C491CB6
:102050006D1E02F80830052908F1010801DA002D8B
:10206000F1DC00210CE000EB1973491C1B786D1E9C
:10207000082902F808304FEA091908F1010801DAC5
:10208000002DF0DC21688B0602D516E0A8F10108CE
:10209000E04505DD02EB080313F8013C302BF5D0D9
:1020A000B8F1000F09DD02EB080313F8013C2E2BF9
:1020B00003D1090701D4A8F10108002D05DD3E2157
:1020C00002F808106D1E08F10108407C002E02F88D
:1020D000080008F1010804DA2D20764202F8080011
:1020E00002E02B2002F808000A214FF47A708642A1
:1020F00008F101080BDB96FBF0F3303302F80830EF
:1021000096FBF0F308F1010800FB136601E0642E72
:102110000CDB642096FBF0F3303302F8083096FBBA
:10212000F0F308F1010800FB136601E00A2E06DB5C
:1021300096FBF1F0303002F8080008F1010896FB38
:10214000F1F001FB1060303002F80800A16908F1DD
:10215000010808EB050202EB0A00081AA0612078CA
:10216000C00602D42046FEF7EDFE216A08AE01EB60
:102170000A00206204E0D4E9012116F8010B90471F
:10218000BAF1010AF7D22078C00602D52046FEF740
:10219000D9FE6E4609E016F8010B3E280FD0D4E9AF
:1021A00001219047206A401C2062B8F10108F2D258
:1021B0002046FEF7DDFE09B00320BDE8F08F206A5F
:1021C0002844206203E0D4E90121302090476D1EAD
:1021D000EBD3F8E7EA24040002FCFFFF10B54369E3
:1021E00013B1AFF3008001E0FEF7E5FE012010BD62
:1021F000127800F124010A7000224A700122EDE7F2
:1022000011684FF0FF32E9E710B5436913B1AFF33E
:10221000008001E0FEF76EFF012010BD128800F182
:10222000240182840022C2840122EDE711684FF06C
:10223000FF32E9E770B50D4601461446D368506990
:102240002A460CF0D7FA002807DA411C07D0E168CB
:1022500020F0004041F48041E160281A70BD204622
:10226000FFF74CF94FF0FF3070BDC16800220260EB
:1022700021F4805141F0400111F4C06FC16001D0E0
:102280008260704702694168891AC269891A81604F
:1022900070472DE9F0470446C06840F48000E060D4
:1022A000010312D520F40020E060810606D4E26A22
:1022B00061688A4200D80A46511A216040F4001031
:1022C000E06094F82500BDE8F08720F40010E0609D
:1022D000800602D52046FFF768F9E06842F28101E6
:1022E0004FF0FF390140012903D02046FFF706F9DE
:1022F000B6E02168002600290ADAC94340F480507C
:102300002160C4E902606068411C61600078DAE71E
:1023100044F2400108420CD020F4A04040F04000BC
:102320002660E06021696068401AE169401AA06097
:1023300096E0216991B9C00310D4E069FEF7D9F89D
:102340002061B0B1E06840F4006010F4407FE060CC
:1023500002D140F48070E06020696060E068D4F8E9
:1023600014A0C1061AD5C0030ED52046FFF7FAF80F
:1023700014E004F1240020610120E061E06820F411
:10238000407040F48060E6E721696068401AA16906
:10239000014450460CF07CFA0028A6DBE068C0033C
:1023A0002AD56168E06A884200D808462169451A42
:1023B000E069471B1BD02046D4F81880FFF7D2F8FD
:1023C00008EB05015046C4F818800CF061FA0028AB
:1023D0008BDBE06840F40030E060000202D5A069C9
:1023E0002844A061E1692069C91B45180DE0204619
:1023F000FFF7B8F8E769F5E725696168D4E90607EA
:10240000491BE56208446560A061E06820F01000A7
:1024100010F4C06FE06002D0204600F089FBE06855
:1024200040F48050C4E90260000205D52069E062F2
:1024300060606FF0010046E7224639462846FFF704
:10244000F9FE411C0CD02918E16258B1401E2060F1
:10245000681C6060E06840F40030E060287832E793
:10246000484630E765602046FFF7FFFEF8E72DE9B4
:10247000F04705460C46C86820F4201040F4800060
:10248000C860800602D50846FFF78FF8E06841F281
:1024900082014FF0FF390140022903D02046FFF7A7
:1024A0002DF8B5E000F42041B1F5004F0FD1C00385
:1024B00006D56168E06A884200D80846606006E098
:1024C0002069E062606060690CF0F8F8A061A068C3
:1024D0000022EEB200280DDAE1688B050AD4C04371
:1024E000A06041F490302260E0606068411C61604F
:1024F0000670A5E0E0689046226040F40050E0607D
:10250000206968BB60690CF003F9012704F1240518
:10251000A0B1A08910F4407F08D0E069FDF7E9FF81
:10252000206118B1E06840F4006016E0E7612561C1
:10253000E06820F4407040F480600EE0E069FDF750
:10254000D8FF00282061F1D0E06840F4006010F46A
:10255000407FE06002D140F48070E06020696060FC
:10256000E06825696FF0010AC1051FD56168E06A5E
:10257000884200D80846411B04D022462846FEF770
:10258000C7FFF0BBE068010203D5E562C4E901586A
:1025900054E0691CE1626160E16940F48030491EE9
:1025A000C4E9021030462E70BDE8F087010202D562
:1025B00000F480320AE06068411C61600670E068E7
:1025C0000A2E40F48030E06006D00022E16A6068A4
:1025D000814203D90B4602E00122F7E70346A789AF
:1025E0005B1B7F0503D4E7699F4200DDE2B18142B6
:1025F00000D80146E5620F1AC4E90158002B09DD35
:1026000000E005E0224619462846FEF781FF08B1A2
:102610004846C9E747B1A069E5626560C01BA06193
:10262000E06840F01000E060E068000208D56168F2
:10263000A069E562491B08446560A0615046B3E7A4
:102640003046B1E72DE9F04704461E4690460D4658
:10265000C7684C3081460BF09FFFB80714D0780252
:1026600012D44046B8F5807F09D0B0F5007F06D07F
:10267000B8F5806F08D1012604F1240506E0701E2C
:102680006FF07F41884201D3012409E02561E661B2
:102690006560E06820F4706040EA0800E0600024B3
:1026A00048460BF0B7FF2046BDE8F0872DE9F04122
:1026B00016460C46054600F051F8036893F80101F0
:1026C000012807D0FF2C12D8185D80B101202C7092
:1026D000BDE8F081D3F807013246214603F2071323
:1026E000C7182846BC46BDE8F041002360474FF0BC
:1026F000FF30EDE710B500F057FABDE8104000F0EC
:102700004EBA10B500F06AFABDE8104000F047BAC2
:102710007546FFF711F9AE4605006946534620F0AD
:102720000700854618B020B5FDF778FEBDE82040CB
:102730004FF000064FF000074FF000084FF0000B7D
:10274000AC46ACE8C009ACE8C009ACE8C009ACE8EC
:10275000C00921F007018D467047000010B500F058
:1027600005F8001D10BD00BFB5C7030010B5FFF789
:10277000E3F8203010BD10B5FEF78FFB0068BDE810
:10278000104000F053BA00002DE9F0411F46044606
:1027900003260168072A01F4006004DB08B116A5CE
:1027A00005E016A503E008B115A500E015A521F088
:1027B00010002060A069C01EA0610FB1401EA06182
:1027C0002046FEF7BFFB4FB1D4E9012138469047C0
:1027D000206A401C2062C01C206206E0206AFAE7E2
:1027E000D4E9012115F8010B9047761EF8D2204656
:1027F000FEF7BEFBBDE8F0814E414E006E616E00FB
:10280000494E4600696E66002DE9F04114460D46BA
:10281000074601F14C0630460BF0BEFE094B7B44E7
:10282000224629463846FEF744FC0446287B00062B
:1028300001D54FF0FF3430460BF0ECFE2046BDE8EA
:10284000F08100008BC303002DE9F0478146164656
:102850008AB0354878440DC88DE80D003248784478
:10286000801C03AC0DC884E80D0041F69B30084481
:10287000372190FBF1F290FBF1F5A5F1800501FB0A
:1028800012041B3C02D56442012000E00020DFF866
:1028900098A080460027FA44AAF1BE0A0EE0E0079D
:1028A0000AD03246684607EB470101230AEB810153
:1028B00029F0CCFD8DE8070064107F1C002CEED1C0
:1028C000194F7F44AE3F19E0E80715D007EB04101D
:1028D0000DF1180A90E80E008AE80E00C068F04278
:1028E00001D1981908903246012306A903A829F0BE
:1028F000ADFD03AB83E807006D10641C002DE3D130
:102900004FF0010332466946B8F1000F03A802D028
:1029100029F087FD01E029F099FDC9E90001C9F816
:1029200008200AB0BDE8F0870C1D04002DE9FF4F18
:1029300006461C468B4681B003F14C0000900BF01C
:102940002BFEBBF1000F06D003992768002528460F
:102950000BFB01F963E000247AE0002F61DCE06901
:1029600048453FDABAF1000F3CD0207B800601D504
:10297000A06A04E0A169606808442169401A2246FF
:10298000A9EB050180463046FFF754FC002812DD14
:102990008044A8F101010644A161226916F8011CD6
:1029A0000027054411702169491CE1626160E168FA
:1029B00041F40031E160411C03D010B1207B40069E
:1029C00042D52046FFF751FCC4F8188020696060AA
:1029D000E062E068276020F40030E060E069404297
:1029E000A06018E0484503DAE06840F40000E060C9
:1029F0002046FFF74EFCE16821F40001E160411C34
:102A000008D0811C0AD02768002807DB6D1C06F857
:102A1000010B19E02760B5FBFBF419E001208246A9
:102A200012E0A9EB0500B846B84200DA804630460D
:102A300042466168FEF7D4F86168A7EB0807464490
:102A400001EB0800454460604D4586DB2760039C30
:102A500000980BF0DFFD05B02046BDE8F08F2DE9B2
:102A6000F05F0E4680461C46924602FB06F503F1D7
:102A70004C0083460BF090FD16B3A768002041E0A0
:102A8000002F41DCE069A8421CDAB9F1000F19D02F
:102A9000224629464046FEF73BFD08B1A76029E0E3
:102AA000E06810F4C06F01D0002008E0226961687E
:102AB000891AE269511AC003A16001D44842A0609A
:102AC000544618E0A84203DAE06840F40000E060F1
:102AD000214698F80000FFF7CAFCE16821F40001E4
:102AE000E160411C06D0A76800280ADB6D1E08F1D2
:102AF000010818E0002458460BF08CFD2046BDE884
:102B0000F09F012081460EE0AF423E4600DD2E469A
:102B1000414632466068FEF763F86068BF1BAD1B34
:102B20003044B0446060002DAADCA760C8E7000014
:102B30002DE9F0470746134881460BF02DFD124C56
:102B400040F2022817E094F85000C00710D0BC42B1
:102B50000ED004F14C0528460BF01EFDE668284611
:102B60000BF058FD38EA060002D12046FDF798FE2A
:102B7000206D20F00104002CE5D148460BF04AFD01
:102B8000BDE8F0871C050020840B002010B504462A
:102B9000AFF300802046BDE81040FDF7C6BB00281B
:102BA00001D00BF085BD704710B5014602A000F0C2
:102BB00042F8012010BD0000534947525452454489
:102BC0003A2052656469726563743A2063616E27C6
:102BD00074206F70656E3A200000000010B5012867
:102BE00005D0002103A000F026F8012010BD09A1A6
:102BF000F8E7000053494752544D454D3A204F7570
:102C000074206F662068656170206D656D6F7279E4
:102C1000000000003A2048656170206D656D6F729C
:102C20007920636F727275707465640010B50C3032
:102C30000BF0C6FC10BD70B505460C460A2000E03E
:102C40006D1C0BF0B3FE35B128780028F8D102E0F6
:102C5000641C0BF0ABFE14B120780028F8D1BDE85D
:102C600070400A200BF0A2BE83B00146029042F2EF
:102C70000030C4F2010001900198426822F4403211
:102C8000426002984068019A536818435060029865
:102C90000068426822F4807242600298026800690B
:102CA000536843EA0020506002980068426822F0AE
:102CB000407242600298026880685368184350600E
:102CC00002980068826822F40062826002980268BA
:102CD000C0689368184390600298806A0122C0F629
:102CE00000729042009119D0FFE702980068816855
:102CF00021F07061816002980168806A8A681043DF
:102D0000886002980068816821F0405181600298D3
:102D10000168C06A8A68104388600CE00298006805
:102D2000816821F07061816002980068816821F0FB
:102D300040518160FFE702980068816821F002013C
:102D400081600298016880698A6842EA4000886070
:102D50000298006A002819D0FFE7029800684168CD
:102D600041F40061416002980068416821F46041CB
:102D7000416002980168406A4EF20002CFF6FF728D
:102D800002EB40304A681043486006E00298006851
:102D9000416821F400614160FFE702980068C16A60
:102DA00021F47001C16202980168C0690022CFF667
:102DB000F07202EB0050CA6A1043C86202980068C1
:102DC000816821F40071816002980168006B8A6853
:102DD00042EA4020886002980068816821F480619E
:102DE00081600298016840698A6842EA80208860B0
:102DF00003B07047FFE7FEE780B584B033F05CFABC
:102E0000EE460021CEF80410CEF8001044F65C41E6
:102E1000C0F606014DF6DD72C0F602024FF0160E46
:102E2000029008467146029B2BF050F803900398DD
:102E300004B080BD80B584B033F03EFAEE46002188
:102E4000CEF80410CEF8001044F61411C0F60601B6
:102E50004DF68512C0F602024FF0130E029008469E
:102E60007146029B2BF032F80390039804B080BDAA
:102E700080B584B033F020FAEE460021CEF804107D
:102E8000CEF8001044F62831C0F606014DF66D422A
:102E9000C0F602024FF00B0E029008467146029BEC
:102EA0002BF014F80390039804B080BD80B584B073
:102EB00033F002FAEE460021CEF80410CEF80010EE
:102EC00044F6A401C0F606014DF2F972C0F6020202
:102ED0004FF0040E029008467146029B2AF0F6FF5E
:102EE0000390039804B080BD80B584B033F0E4F95A
:102EF000EE460021CEF80410CEF8001045F2801105
:102F0000C0F606014EF2CD32C0F602024FF0150EA9
:102F1000029008467146029B2AF0D8FF039003985E
:102F200004B080BD80B584B033F0C6F9EE46002110
:102F3000CEF80410CEF8001044F6C461C0F60601C5
:102F40004EF2B112C0F602024FF0190E029008467E
:102F50007146029B2AF0BAFF0390039804B080BD2B
:102F60007047000080B54FF4804001F00BFB4FF438
:102F7000004001F007FB80BD80B54DF2A460C2F2B5
:102F80000000006827F0D4FD80BD000080B582B04D
:102F9000014601904DF2A460C2F200000068019A5F
:102FA0000091114627F04AFF02B080BD82B0014671
:102FB0000190009102B0704782B0014601900091EB
:102FC00002B0704782B001460190009102B0704794
:102FD00082B001460190009102B0704782B0014674
:102FE0000190009102B070477047000070470000E8
:102FF0007047000070470000B0B588B09C46964608
:103000000C4605460790069105920493CDF80CC036
:10301000CDF808E00194009508B0B0BD84B00A4630
:103020000346039002910192009304B070470000A0
:1030300080B586B013468C4686460590049103926F
:103040000293CDF804C0CDF800E006B080BD0000CA
:10305000B0B588B09C4696460C460546079006914A
:1030600005920493CDF80CC0CDF808E001940095CA
:1030700008B0B0BD80B586B013468C468646059034
:10308000049103920293CDF804C0CDF800E006B09D
:1030900080BD000080B586B013468C4686460590FC
:1030A000049103920293CDF804C0CDF800E006B07D
:1030B00080BD000082B001460190009102B07047CF
:1030C00084B00A460346039002910192009304B033
:1030D0007047000084B00A460346039002910192B3
:1030E000009304B070470000B0B588B09C46964687
:1030F0000C4605460790069105920493CDF80CC046
:10310000CDF808E00194009508B0B0BD80B586B058
:1031100013468C4686460590049103920293CDF89F
:1031200004C0CDF800E006B080BD000082B00146CA
:103130000190009102B0704784B00A4603460390A4
:1031400002910192009304B07047000084B00A46D7
:103150000346039002910192009304B0704700006F
:1031600080B586B013468C4686460590049103923E
:103170000293CDF804C0CDF800E006B080BD000099
:1031800084B00A460346039002910192009304B072
:103190007047000084B00A460346039002910192F2
:1031A000009304B070470000B0B588B09C469646C6
:1031B0000C460546079006918DF817200493CDF82C
:1031C0000CC0CDF808E00194009508B0B0BD000037
:1031D00080B586B013468C468646059004910392CE
:1031E0000293CDF804C0CDF800E006B080BD000029
:1031F00082B001460190009102B0704784B00A4647
:103200000346039002910192009304B070470000BE
:1032100084B00A460346039002910192009304B0E1
:103220007047000084B00A46034603900291019261
:10323000009304B07047000082B0014601900091F5
:1032400002B0704784B00A4603460390029101928F
:10325000009304B07047000084B00A460346039010
:1032600002910192009304B07047000082B00146C1
:103270000190009102B0704782B001460190009128
:1032800002B0704784B00A4603460390029101924F
:10329000009304B07047000082B001460190009195
:1032A00002B0704782B001460190009102B07047B1
:1032B00082B001460190009102B0704784B00A4686
:1032C0000346039002910192009304B070470000FE
:1032D00084B00A460346039002910192009304B021
:1032E0007047000084B00A460346039002910192A1
:1032F000009304B07047000082B001460190009135
:1033000002B0704784B00A460346039002910192CE
:10331000009304B07047000084B00A46034603904F
:1033200002910192009304B07047000082B0014600
:103330000190009102B0704782B001460190009167
:1033400002B0704784B00A4603460390029101928E
:10335000009304B07047000080B586B013468C46D9
:1033600086460590049103920293CDF804C0CDF8EF
:1033700000E006B080BD000082B0014601900091DF
:1033800002B0704782B001460190009102B07047D0
:1033900084B00A460346039002910192009304B060
:1033A0007047000084B00A460346039002910192E0
:1033B000009304B07047000080B586B013468C4679
:1033C00086460590049103920293CDF804C0CDF88F
:1033D00000E006B080BD000082B00146019000917F
:1033E00002B070477047000082B001460190009122
:1033F00002B0704784B00A460346039002910192DE
:10340000009304B0704700007047000084B00A4683
:103410000346039002910192009304B070470000AC
:1034200084B00A460346039002910192009304B0CF
:103430007047000080B586B013468C4686460590DE
:10344000049103920293CDF804C0CDF800E006B0D9
:1034500080BD000080B586B013468C468646059038
:10346000049103920293CDF804C0CDF800E006B0B9
:1034700080BD000084B00A46034603900291019289
:10348000009304B07047000080B586B013468C46A8
:1034900086460590049103920293CDF804C0CDF8BE
:1034A00000E006B080BD00007047000082B0014619
:1034B0000190009102B0704782B0014601900091E6
:1034C00002B0704780B586B013468C46864605909C
:1034D000049103920293CDF804C0CDF800E006B049
:1034E00080BD000082B001460190009102B070479B
:1034F00082B001460190009102B0704782B001464F
:103500000190009102B0704784B00A4603460390D0
:1035100002910192009304B07047000070470000D0
:1035200084B00A460346039002910192009304B0CE
:103530007047000084B00A4603460390029101924E
:10354000009304B07047000084B00A46034603901D
:1035500002910192009304B07047000084B00A46C3
:103560000346039002910192009304B0704700005B
:10357000B0B588B09C4696460C46054607908DF837
:103580001B1005920493CDF80CC0CDF808E001940F
:10359000009508B0B0BD000084B00A460346039011
:1035A00002910192009304B07047000082B001467E
:1035B0000190009102B0704782B0014601900091E5
:1035C00002B0704782B001460190009102B070478E
:1035D00080B540F20000C1F200004FF470412AF0C3
:1035E00097F940F6AC30C0F606002BF0FDFE80BD2A
:1035F00080B582B017F05CFB019002B080BD000086
:1036000080B517F0C1FA80BD80B515F039FC80BDDA
:103610007047000080B582B00020019015F008FED0
:1036200041F6201EC2F2000ECEF800004FF6FF70E9
:103630000199019A17F084F94DF29461C2F20001E8
:10364000086002B080BD000080B582B041F6201055
:10365000C2F2000000684FF0FF3115F081FD0190CB
:103660000198002812D0FFE741F62010C2F20000B6
:103670000268019B48F6DD10C0F6060048F61F21DF
:10368000C0F60601FCF7F2FF0090FFE702B080BD34
:1036900080B582B041F62010C2F20000006815F03B
:1036A000F7FD01900198002812D0FFE741F62010A5
:1036B000C2F200000268019B48F6FE10C0F6060048
:1036C00048F62A21C0F60601FCF7D0FF0090FFE77C
:1036D00002B080BD81B044F23460C0F606000068DC
:1036E0000090009801B0704744F21070C0F60600D8
:1036F0007047000081B040F6E040C2F20000006870
:103700000090009801B0704781B044F23C60C0F670
:10371000060000680090009801B0704788B00A4623
:103720000346069005910020049002920193FFE762
:10373000069890F83C00012804D1FFE702208DF89C
:103740001F00FBE00698012180F83C10FFE7FFE72F
:10375000059800680A281CD3FFE70598008800EB4D
:1037600040001E38072101FA00F006990968CA686E
:1037700022EA0000C86005988168008800EB4000DC
:103780001E3801FA00F006990968CA681043C8603B
:1037900019E00598008800EB4000072101FA00F0CD
:1037A000069909680A6922EA00000861059881689B
:1037B000008800EB400001FA00F0069909680A69E8
:1037C00010430861FFE70598406806281CD8FFE70A
:1037D0000598406800EB800005381F2101FA00F0D1
:1037E000069909684A6B22EA000048630598018837
:1037F000406800EB8000053801FA00F0069909687E
:103800004A6B104348633DE0059840680C281CD87B
:10381000FFE70598406800EB800023381F2101FA7C
:1038200000F0069909680A6B22EA0000086305980F
:103830000188406800EB8000233801FA00F0069907
:1038400009680A6B104308631BE00598406800EBA9
:10385000800041381F2101FA00F006990968CA6A00
:1038600022EA0000C86205980188406800EB8000E9
:10387000413801FA00F006990968CA6A1043C86223
:10388000FFE7FFE742F20030C4F201000390069820
:10389000006842F20001C4F2010188420BD1FFE747
:1038A00005980068122806D1FFE70398416841F4A3
:1038B00080014160FFE70698006842F20001C4F20F
:1038C0000101884230D1FFE705980068102805D033
:1038D000FFE705980068112826D1FFE703984168A3
:1038E00041F4000141600598006810281BD1FFE7F2
:1038F00040F22050C2F2000000684DF68361C4F22D
:103900001B31A0FB0101890C01EB810149000491ED
:103910000090FFE70498002804D0FFE704980138DE
:103920000490F7E7FFE7FFE7FFE70698002180F83C
:103930003C10FFE700208DF81F00FFE79DF81F00F7
:1039400008B0704782B0014601900198006C009168
:1039500002B0704782B00146019001980068C06CC7
:10396000009102B07047000080B584B0014602901B
:1039700000208DF8070002980028009104D1FFE78D
:1039800001208DF80F0043E00298806A0121C0F603
:103990000071884201D0FFE7FFE70298006C002821
:1039A0000AD1FFE7029800214164029880F83C1098
:1039B000029800F031F8FFE70298006C10F0100F49
:1039C00017D1FFE70298006C40F0020020F4885005
:1039D000029908640298FFF747F9029800214164B0
:1039E0000298006C40F0010020F002000299086487
:1039F00003E001208DF80700FFE7FFE702980021B0
:103A000080F83C10FFE79DF807008DF80F00FFE7F6
:103A10009DF80F0004B080BD80B590B001460F90B6
:103A20000F98006842F20002C4F20102904206912F
:103A30003DD1FFE7FFE70020099043F64400C4F2C0
:103A40000200016841F480710160006800F4807038
:103A5000099009980590FFE73F200A9003200B90FA
:103A600000210C9140F60002C4F202020AAB04905D
:103A7000104603911946029300F0A2FDC1200A905E
:103A800004980B9003990C910020C4F20200029953
:103A900000F096FD04980A900B9003990C9140F267
:103AA0000040C4F20200029900F08AFD51E00F9834
:103AB000006842F20011C4F2010188421FD1FFE701
:103AC000FFE70020089043F64400C4F202000168BA
:103AD00041F400710160006800F4007008900898DB
:103AE0000190FFE702200A9003200B9000200C9029
:103AF0000020C4F202000AA900F062FD28E00F983D
:103B0000006842F20021C4F2010188421FD1FFE7A0
:103B1000FFE70020079043F64400C4F2020001686A
:103B200041F480610160006800F4806007900798AC
:103B30000090FFE70C200A9003200B9000200C90CF
:103B40000020C4F202000AA900F03AFDFFE7FFE7F7
:103B5000FFE710B080BD000080B586B00A4603467E
:103B6000049003910020029004980068806810F48B
:103B7000806F0192009316D0FFE704980068806878
:103B800010F4807F0FD0FFE70498016C41F0200112
:103B90000164FFE70498002180F83C10FFE7012052
:103BA0008DF817006AE000F033FF0290FFE70498F9
:103BB0000068006800F00200022825D0FFE70398A3
:103BC000013000281FD0FFE7039800280BD0FFE743
:103BD00000F01EFFDDF808E0A0EB0E00DDF80CE0C1
:103BE00070450FD9FFE70498016C41F004010164AE
:103BF000FFE70498002180F83C10FFE703208DF8D0
:103C000017003BE0FFE7D2E7049800686FF012016D
:103C100001600498016C41F400710164049800682B
:103C2000806810F0405F25D1FFE704988069002884
:103C300020D1FFE704980068C06A10F4700F07D025
:103C4000FFE704980068806810F4806F12D1FFE7E6
:103C50000498016C21F4807101640498006C10F4E4
:103C6000805F06D1FFE70498016C41F00101016417
:103C7000FFE7FFE700208DF81700FFE79DF817002A
:103C800006B080BD86B001460490002003900191EB
:103C9000FFE7049890F83C00012804D1FFE70220D8
:103CA0008DF817009EE00498012180F83C10FFE792
:103CB000FFE704980068806810F0010F20D1FFE74B
:103CC00004980068816841F00101816040F2205051
:103CD000C2F2000000684DF68361C4F21B31A0FB04
:103CE0000101890C01EB410103910090FFE703986A
:103CF000002804D0FFE7039801380390F7E7FFE7B7
:103D000004980068806810F0010F67D0FFE70498FE
:103D1000006C40F4807040F20161884304990864AB
:103D200004980068406810F4806F09D0FFE7049899
:103D3000006C40F4805020F4005004990864FFE7C0
:103D40000498006C10F4805F06D0FFE70498416C83
:103D500021F00601416403E0049800214164FFE77B
:103D6000FFE70498002180F83C10FFE742F20030A2
:103D7000C4F201000290049800686FF02201016013
:103D80000298406810F01F0F0FD1FFE704980068F9
:103D9000806810F0405F07D1FFE7049800688168F1
:103DA00041F080418160FFE717E00498006842F22B
:103DB0000001C4F2010188420ED1FFE704980068B7
:103DC000806810F0405F07D1FFE7049800688168C1
:103DD00041F080418160FFE7FFE7FFE700208DF8B9
:103DE0001700FFE79DF8170006B0704780B584B054
:103DF0000146029002980028019104D1FFE70120BA
:103E00008DF80F0015E002984079002807D1FFE7F0
:103E1000029800210171029800F010F8FFE7029863
:103E20000221417102980121417100208DF80F009B
:103E3000FFE79DF80F0004B080BD000084B001468C
:103E400003900398006843F20002C4F20202904219
:103E5000019113D1FFE7FFE70020029043F6300005
:103E6000C4F20200016841F480510160006800F46E
:103E70008050029002980090FFE7FFE704B070477F
:103E800080B589B013468C46864607900691059208
:103E90000020049003900293CDF804C0CDF800E018
:103EA000FFE707984079012804D1FFE702208DF849
:103EB000230039E0079801214171FFE7FFE70798E8
:103EC000022101710798006800680490059840F687
:103ED000FE7101FA00F0049921EA000004900698AE
:103EE0000168406808430390039805998840049945
:103EF0000843049004980799096808600598C02150
:103F000001FA00F0079909680A6822EA00000860CF
:103F1000079801210171FFE7079800214171FFE730
:103F200000208DF82300FFE79DF8230009B080BD35
:103F300080B584B00146029002980028019104D116
:103F4000FFE701208DF80F0017E0029800790028A4
:103F500007D1FFE7029800214171029800F012F8A2
:103F6000FFE7029802210171029800210161029885
:103F7000012202718DF80F10FFE79DF80F0004B0C9
:103F800080BD000080B58AB001460990099800689C
:103F900047F20042C4F20002904202911FD1FFE7B3
:103FA000FFE70020039043F64000C4F202000168DE
:103FB00041F000510160006800F000500390039848
:103FC0000190FFE730200490032005900020069028
:103FD0000020C4F2020004A900F0F2FAFFE70AB0E0
:103FE00080BD0000B0B589B09C4696460C4605469B
:103FF00008900791069205930020049008980068A5
:10400000049007980028CDF80CC0CDF808E0019482
:10401000009506D1FFE706980499084408300490FB
:1040200005E006980499084414300490FFE70598C9
:1040300004990860002009B0B0BD000087B00A46AE
:104040000346059004910020039002900192009392
:10405000FFE705984079012804D1FFE702208DF899
:104060001B005AE0059801214171FFE7FFE7059821
:10407000022101710498012101FA00F005990968F3
:104080000A6810430860049800281CD1FFE70598CF
:104090000068006800F0040003900598006800685C
:1040A00000F038000290039804280BD1FFE7029833
:1040B000382807D1FFE705980068416841F0010101
:1040C0004160FFE71DE005980068006800F480206B
:1040D000039005980068006800F46010029003984F
:1040E000B0F5802F0CD1FFE70298B0F5601F07D123
:1040F000FFE705980068416841F002014160FFE771
:10410000FFE7059801210171FFE705980021417142
:10411000FFE700208DF81B00FFE79DF81B0007B0AC
:104120007047000080B586B0014604900498806D09
:104130000390019100F06CFC0290049890F8350017
:1041400002280DD0FFE7049880214165FFE704981D
:10415000002180F83410FFE701208DF817005AE0A5
:1041600004980068016821F0160101600498006855
:10417000416921F0800141610498006C002805D15B
:10418000FFE70498806C002807D0FFE704980068D8
:10419000016821F008010160FFE7049800680168E8
:1041A00021F001010160FFE704980068006810F049
:1041B000010F1AD0FFE700F02BFCDDF808E0A0EBC0
:1041C0000E00062810D3FFE7049820214165FFE781
:1041D0000498002180F83410FFE70498032180F848
:1041E00035108DF8171016E0DEE70498C06D3F21FA
:1041F00001FA00F003998860FFE70498002180F835
:104200003410FFE70498012180F83510FFE7002003
:104210008DF81700FFE79DF8170006B080BD00007D
:1042200080B584B001460390009100F0F1FB02904C
:104230000398019001980130002809D0FFE740F66B
:104240004400C2F200000078019908440190FFE7A1
:10425000FFE700F0DDFBDDF808E0A0EB0E00DDF885
:1042600004E0704501D2FFE7F3E704B080BD000031
:1042700080B590B00A4603460F900E9100200C9036
:104280000B900A900D9009920893FFE70D980F2864
:1042900000F21381FFE70D98012101FA00F00C9064
:1042A0000E980C9908400B900B980C99884240F09E
:1042B000FF80FFE70D984000032101FA00F00F9AFC
:1042C000136823EA000010600D9800F007029200C6
:1042D0000F2303FA02F2DDF83CC04FF6FC7EC7F66E
:1042E000FF7E0EEA50006044D0F820C02CEA0202A3
:1042F00002620D98400001FA00F00F9AD2F808C04F
:104300002CEA000090600D98012202FA00F00F9A4A
:10431000D2F804C02CEA000050600D98400001FA69
:1043200000F00F99CA6822EA0000C8600D9820F0DA
:10433000030043F60801C4F2010140580A900D98A9
:1043400000F00300800003FA00F00A9908400A9088
:104350000A980F990022C4F202029142079003D1F9
:10436000FFE7002006905EE00F9840F20041C4F2A3
:104370000201884203D1FFE70120059050E00F9829
:1043800040F60001C4F20201884203D1FFE7022097
:10439000049042E00F9840F60041C4F202018842C6
:1043A00003D1FFE70320039034E00F9841F20001AE
:1043B000C4F20201884203D1FFE70420029026E004
:1043C0000F9841F20041C4F20201884203D1FFE795
:1043D0000520019018E00F9841F60001C4F2020197
:1043E000884203D1FFE7062000900AE00F9841F6CB
:1043F0000041C4F202010822884208BF072200924D
:10440000FFE700980190FFE701980290FFE702980C
:104410000390FFE703980490FFE704980590FFE7F7
:1044200005980690FFE70698C0B20D9901F00301C8
:10443000890088400799814239D1FFE70D9800F043
:10444000030080000F2101FA00F00A900A980D99EC
:1044500021F0030143F60802C4F201028B5823EA5B
:10446000000088500B9843F60041C4F201010A682D
:1044700022EA000008600B9843F60441C4F20101EF
:104480000A6822EA000008600B9843F60841C4F26B
:1044900001010A6822EA000008600B9843F60C410B
:1044A000C4F201010A6822EA00000860FFE7FFE7A2
:1044B000FFE70D9801300D90E8E610B080BD0000D8
:1044C00080B58CB00146ADF82E00BDF82E00024636
:1044D000B0F5804F0791069205D0FFE70698B0F53A
:1044E000004F04D007E04FF48170089004E040F2E0
:1044F0000110089000E043E041F6DC00C2F2000049
:10450000806908A900220592059B14F0D7FD0A9046
:104510000A98002834D0FFE7FFE740F28850C2F243
:1045200000000068002829D0FFE70EF0A7F816F079
:104530002BFBEE467921CEF8001040F62C41C2F25A
:10454000000145F6DF2EC0F6060E48F65F33C0F6D2
:1045500006030490084603917146049AFCF792F80A
:104560000A9A48F65321C0F60601039B02901846AA
:10457000FCF788F801900EF0A9F8FFE7FFE7FFE7E6
:104580000CB080BD80B582B00146ADF8060043F6A0
:104590001440C4F201000068BDF8062010420091EA
:1045A0000CD0FFE7BDF8060043F61441C4F2010148
:1045B0000860BDF80600FFF783FFFFE702B080BD8B
:1045C00091B00A46034610900F9100200D900C9078
:1045D0000B900E9009920893FFE70E980F2800F2B7
:1045E000D681FFE70E98012101FA00F00D900F9897
:1045F00000680D9908400C900C980D99884240F085
:10460000C181FFE70F984068022805D0FFE70F98A7
:104610004068122828D1FFE710980E994FF6FC72D7
:10462000C7F6FF7202EA51010844006A0B900E9827
:1046300000F0070080000F2101FA00F00B9921EA39
:1046400000000B900F9800690E9901F00701890096
:1046500088400B9908430B900B9810990E9B02EA27
:10466000530211440862FFE7109800680B900E98FF
:104670004000032101FA00F00B9921EA00000B90A1
:104680000F98406800F003000E99490088400B998C
:1046900008430B900B98109908600F984068012808
:1046A0000FD0FFE70F98406802280AD0FFE70F9865
:1046B0004068112805D0FFE70F98406812282FD1D5
:1046C000FFE7109880680B900E984000032101FAD4
:1046D00000F00B9921EA00000B900F98C0680E992A
:1046E000490088400B9908430B900B9810998860FB
:1046F000109840680B900E98012101FA00F00B9978
:1047000021EA00000B900F984068C0F300100E994A
:1047100088400B9908430B900B9810994860FFE76D
:104720001098C0680B900E984000032101FA00F029
:104730000B9921EA00000B900F9880680E994900B0
:1047400088400B9908430B900B981099C8600F98FC
:104750004068C000002840F11481FFE7FFE7002017
:104760000A9043F64400C4F20200016841F480411B
:104770000160006800F480400A900A980790FFE703
:104780000E9820F0030043F60801C4F201014058DE
:104790000B900E9800F0030080000F2101FA00F04A
:1047A0000B9921EA00000B9010980021C4F202013D
:1047B000884203D1FFE7002006905EE0109840F2A7
:1047C0000041C4F20201884203D1FFE701200590B5
:1047D00050E0109840F60001C4F20201884203D173
:1047E000FFE70220049042E0109840F60041C4F236
:1047F0000201884203D1FFE70320039034E01098C0
:1048000041F20001C4F20201884203D1FFE7042013
:10481000029026E0109841F20041C4F20201884261
:1048200003D1FFE70520019018E0109841F6000140
:10483000C4F20201884203D1FFE7062000900AE09B
:10484000109841F60041C4F202010822884208BFD4
:1048500007220092FFE700980190FFE7019802907D
:10486000FFE702980390FFE703980490FFE704989E
:104870000590FFE705980690FFE70698C0B20E99ED
:1048800001F00301890088400B9908430B900B98B5
:104890000E9921F0030143F60802C4F20102885088
:1048A00043F60040C4F2010000680B900C980B998D
:1048B00021EA00000B900F984068C003002805D53E
:1048C000FFE70C980B9908430B90FFE70B9843F612
:1048D0000041C4F20101086043F60440C4F2010043
:1048E00000680B900C980B9921EA00000B900F9830
:1048F00040688003002805D5FFE70C980B99084312
:104900000B90FFE70B9843F60441C4F201010860E5
:1049100043F60840C4F2010000680B900C980B9914
:1049200021EA00000B900F984068C002002805D5CE
:10493000FFE70C980B9908430B90FFE70B9843F6A1
:104940000841C4F20101086043F60C40C4F20100C2
:1049500000680B900C980B9921EA00000B900F98BF
:1049600040688002002805D5FFE70C980B990843A2
:104970000B90FFE70B9843F60C41C4F2010108606D
:10498000FFE7FFE7FFE70E9801300E9025E611B034
:104990007047000084B00A4603460390ADF80A1041
:1049A00003980069BDF80A1008420192009304D0F0
:1049B000FFE701208DF8090003E000208DF80900D1
:1049C000FFE79DF8090004B07047000080B585B08E
:1049D00013468C4686460490ADF80E108DF80D20D7
:1049E0009DF80D0000280293CDF804C0CDF800E03A
:1049F00005D0FFE7BDF80E000499886105E0BDF819
:104A00000E00000404998861FFE705B080BD000036
:104A100080B514F035FA80BD82B00146019047F6AA
:104A20001020C1F6FF700068019A106047F614204C
:104A3000C1F6FF700068019A506047F61820C1F671
:104A4000FF700068019A9060009102B0704700000A
:104A500080B58EB001460C9000200B900A900C9807
:104A60000028099104D1FFE701208DF83700DBE031
:104A70000C9890F83D00002808D1FFE70C98002121
:104A800080F83C100C9800F0D3F8FFE70C98242134
:104A900080F83D100C980068016821F00101016068
:104AA00000F0D6FC0A900A984DF68361C4F21B31DF
:104AB000A0FB0101890C0B910B99DDF830E0DEF8C9
:104AC00000E0CEF804100C99496848F2A06EC0F2DC
:104AD000010E7145089004D8FFE70B98013007904C
:104AE0000FE00B984FF49671484344F6D351C1F24E
:104AF0006201A0FB0101012202EB911106900791D6
:104B0000FFE707980C99096808620C98406848F21A
:104B1000A061C0F20101884219D8FFE70A980C99F8
:104B200049684900B0FBF1F06FF31F30032803D848
:104B3000FFE70420059007E00A980C9949684900AE
:104B4000B0FBF1F00590FFE70598049041E00C9868
:104B50008068002809D1FFE70A980C99496801EBA1
:104B60004101B0FBF1F003900AE00A980C99496802
:104B700019225143B0FBF1F040F480400390FFE76D
:104B800003980005002803D1FFE7012002901DE0F3
:104B90000C988068002809D1FFE70A980C994968A9
:104BA00001EB4101B0FBF1F001900AE00A980C9989
:104BB000496819225143B0FBF1F040F48040019064
:104BC000FFE7019840F400400290FFE7029804904C
:104BD000FFE704980C990968C8610C980168C269DC
:104BE000006A104308600C980168C26800691043AD
:104BF00088600C980168426980691043C8600C980D
:104C00000068016841F0010101600C980021016415
:104C10000C98202280F83D200C9801630C9880F8B5
:104C20003E108DF83710FFE79DF837000EB080BDBD
:104C300080B58CB001460B900B98006845F200429D
:104C4000C4F200029042039124D1FFE7C0200690F5
:104C500012200790012008900320099004200A9058
:104C600040F20040C4F2020006A9FFF7A9FCFFE7EA
:104C70000020059043F64000C4F20200016841F4B0
:104C800000110160006800F4001005900598029082
:104C9000FFE72EE00B98006845F60001C4F2000122
:104CA000884225D1FFE74FF440600690122007901C
:104CB000012008900320099004200A9040F200404F
:104CC000C4F2020006A9FFF77BFCFFE70020049076
:104CD00043F64000C4F20200016841F48001016023
:104CE000006800F48000049004980190FFE7FFE75B
:104CF000FFE70CB080BD000080B582B043F60040F5
:104D0000C4F20200016841F400710160016841F4DD
:104D100080610160016841F480710160032000F04E
:104D2000D1F80020019000F007F8009000F040F862
:104D3000019802B080BD000080B584B001460290A9
:104D400040F22050C2F20000006840F64402C2F275
:104D5000000212784FF47A73B3FBF2F2B0FBF2F078
:104D6000019101F0C9F8002804D0FFE701208DF877
:104D70000F0018E002980F280DD8FFE702994FF0B6
:104D8000FF30002200F07AF8029840F64801C2F2A3
:104D90000001086003E001208DF80F0003E000200F
:104DA0008DF80F00FFE79DF80F0004B080BD0000F4
:104DB00080B586B0FFE70020059043F64400C4F2BA
:104DC0000200016841F480410160006800F4804005
:104DD000059005980390FFE7FFE70020049043F655
:104DE0004000C4F20200016841F080510160006897
:104DF00000F08050049004980290FFE7032000F038
:104E000061F86FF00B004FF0000E71467246CDF85E
:104E100004E000F033F86FF00A000199019A00F005
:104E20002DF86FF009000199019A00F027F86FF052
:104E300004000199019A00F021F86FF00300019934
:104E4000019A00F01BF86FF001000199019A00F03F
:104E500015F84FF0FF300199019A00F00FF806B0F5
:104E600080BD000080B582B001468DF807009DF935
:104E70000700009108F0A4FB02B080BD80B58AB0A5
:104E800013468C4686468DF827000891079200202D
:104E900006900593CDF810C0CDF80CE008F0B4FBF7
:104EA000069006980899079A9DF92730029302F018
:104EB000D9F9029901900846019908F0ADFB0AB0B2
:104EC00080BD000080B582B001460190019800913C
:104ED00008F0C8FB02B080BD2DE9F04F99B0014643
:104EE00017900020169017980028159104D1FFE71D
:104EF00001208DF863000DE11798032180F8B913A4
:104F0000179800F02BF91798006807F02FFA1799F7
:104F1000D1F800E04A688B68D1F80CC00C694D6983
:104F20008E69CF69D1F82080D1F82490D1F828A0DB
:104F3000D1F82CB01490086B496B1390684641620D
:104F400013990162C0F81CB0C0F818A0C0F8149002
:104F5000C0F81080C76086604560046070461146E6
:104F60001A46634606F0F6FF179909680022129068
:104F700008461146119207F05BFA119916911090AC
:104F8000FFE716980E283BD8FFE717981699C1EB54
:104F9000C10100EB8100012180F8391016981799A2
:104FA000C0EBC00201EB820181F838001698179916
:104FB000C0EBC00201EB8201C88717981699C1EBBC
:104FC000C10100EB8100002180F83B101798169A70
:104FD000C2EBC20200EB820001641798169AC2EB82
:104FE000C20200EB820041641798169AC2EBC2021B
:104FF00000EB8200C164FFE7169801301690C0E70D
:1050000000201690FFE716980E2844D8FFE717985F
:105010001699C1EBC10100EB8100002180F8F91164
:105020001698179AC0EBC00302EB830282F8F801CE
:105030001698179AC0EBC00302EB8302D08717982B
:10504000169AC2EBC20200EB820080F8FB1117989F
:10505000169AC2EBC20200EB8200C0F80012179849
:10506000169AC2EBC20200EB8200C0F80412179835
:10507000169AC2EBC20200EB8200C0F80C1217981D
:105080000068169A00EB8200C0F80411FFE716983A
:1050900001301690B7E71798016842688368D0F826
:1050A0000CC0D0F810E044698569C669076AD0F879
:1050B0002480D0F82890D0F82CA0D0F830B0406BE5
:1050C0000F9068460E900F980D910E994862C1F8A6
:1050D00020B0C1F81CA0C1F81890C1F814800F616D
:1050E000CE608D604C60C1F800E00D9811461A4604
:1050F000634606F0FBFF1799012281F8B92317993F
:1051000009680C90084606F0DFFF00218DF8631057
:105110000B90FFE79DF8630019B0BDE8F08F000029
:1051200080B582B00146019001980068B0F1A04FAF
:10513000009110D1FFE743F63400C4F20200016889
:1051400021F0800101600020C4F202004FF4C05140
:10515000FFF78EF8FFE702B080BD000080B58AB08F
:105160000146099009980068B0F1A04F02912ED134
:10517000FFE74FF4C05004900220059000200690F5
:10518000032007900A2008900020C4F2020004A91E
:10519000FFF716FAFFE743F63400C4F20200016895
:1051A00041F080010160FFE70020039043F64400D6
:1051B000C4F20200016841F480410160006800F41B
:1051C0008040039003980190FFE7FFE7FFE70AB0F4
:1051D00080BD000080B588B00A4603460690059160
:1051E000069800280392029304D1FFE701208DF86E
:1051F0001F0023E1059843F60041C4F2020109684B
:1052000001F00F01884212D9FFE7059843F60041EB
:10521000C4F202010870086800F00F000599884286
:1052200004D0FFE701208DF81F0007E1FFE7069893
:105230000068800700282AD5FFE706980068400725
:10524000002809D5FFE743F60800C4F20200016810
:1052500041F4E0510160FFE706980068000700286C
:1052600009D5FFE743F60800C4F20200016841F4E3
:1052700060410160FFE743F60800C4F202000168E4
:1052800021F0F001069A926811430160FFE7069849
:105290000068C007002870D0FFE706984068012822
:1052A00011D1FFE743F60000C4F20200006800F4E9
:1052B00000300021B1EB504F04D1FFE701208DF801
:1052C0001F00BBE02CE006984068022805D0FFE7ED
:1052D00006984068032811D1FFE743F60000C4F2A6
:1052E0000200006800F000700021B1EB506F04D1A3
:1052F000FFE701208DF81F00A0E010E043F600005A
:10530000C4F20200006800F002000021B1EB500F6F
:1053100004D1FFE701208DF81F008FE0FFE7FFE7D2
:1053200043F60800C4F20200016821F00301069A66
:10533000526811430160FFF76BFB0490FFE743F6EF
:105340000800C4F20200006800F00C0006994968E9
:10535000B0EB810F10D0FFE7FFF75AFBDDF810E04C
:10536000A0EB0E0041F2893E704504D3FFE7032015
:105370008DF81F0062E0E2E7FFE7059843F6004181
:10538000C4F20201096801F00F01884212D2FFE75E
:10539000059843F60041C4F202010870086800F065
:1053A0000F000599884204D0FFE701208DF81F0007
:1053B00044E0FFE706980068400700280CD5FFE7A7
:1053C00043F60800C4F20200016821F4E051069A95
:1053D000D26811430160FFE70698006800070028C3
:1053E0000DD5FFE743F60800C4F20200016821F47E
:1053F0006041069A126941EAC2010160FFE700F0CC
:105400004FF843F6080EC4F2020EDEF800E0CEF3C9
:10541000031E44F21C61C0F6060111F80E10C840CC
:1054200040F22051C2F20001086000200190FFF715
:1054300083FC01998DF81F100090FFE79DF81F0075
:1054400008B080BD40F22050C2F2000000687047F2
:1054500080B5FFF7F7FF43F6080EC4F2020EDEF840
:1054600000E0CEF3822E44F22C61C0F6060111F862
:105470000E10C84080BD000080B5FFF7E3FF43F683
:10548000080EC4F2020EDEF800E0CEF3423E44F213
:105490002C61C0F6060111F80E10C84080BD000056
:1054A00080B586B00020059004900390029043F6EA
:1054B0000800C4F20200006800F00C000146002859
:1054C000019108D0FFE7019804280AD0FFE701986E
:1054D00008280CD04FE042F20040C0F2F4000290E5
:1054E0004FE041F20020C0F27A00029049E043F61A
:1054F0000400C4F20200016801F03F010591006858
:1055000010F4800F13D0FFE743F60400C4F202004A
:105510000068C0F3881041F20021C0F27A01A0FBBC
:105520000101059A0023FBF729F8049012E043F6E5
:105530000400C4F202000068C0F3881042F2004187
:10554000C0F2F401A0FB0101059A0023FBF716F855
:105550000490FFE743F60400C4F20200006800F480
:105560004030022101EBD030039004980399B0FB46
:10557000F1F0029005E042F20040C0F2F400029027
:10558000FFE7029806B080BD80B588B0014606905E
:1055900006980028029104D1FFE701208DF81F0032
:1055A00027E306980068C007002800F0AB80FFE7FB
:1055B00043F60800C4F20200006800F00C00042862
:1055C00013D0FFE743F60800C4F20200006800F0C1
:1055D0000C0008281FD1FFE743F60400C4F20200C4
:1055E000006810F4800F16D0FFE743F60000C4F205
:1055F0000200006800F400300021B1EB504F09D0E8
:10560000FFE706984068002804D1FFE701208DF8E5
:105610001F00EEE275E0FFE706984068B0F5803FB6
:1056200009D1FFE743F60000C4F20200016841F42B
:105630008031016020E006984068B0F5A02F0DD1C0
:10564000FFE743F60000C4F20200016841F4802144
:105650000160016841F4803101600CE043F6000014
:10566000C4F20200016821F480310160016821F474
:1056700080210160FFE7FFE7FFE706984068002808
:105680001FD0FFE7FFF7C4F90590FFE743F60000DE
:10569000C4F20200006800F400300021B1EB504F6A
:1056A0000ED1FFE7FFF7B4F9DDF814E0A0EB0E0030
:1056B000652804D3FFE703208DF81F0099E2E5E792
:1056C0001EE0FFF7A5F90590FFE743F60000C4F2DE
:1056D0000200006800F400300021B1EB504F0ED002
:1056E000FFE7FFF795F9DDF814E0A0EB0E00652861
:1056F00004D3FFE703208DF81F007AE2E5E7FFE718
:10570000FFE7FFE7069800688007002840F19B80CC
:10571000FFE743F60800C4F20200006810F00C0F27
:1057200013D0FFE743F60800C4F20200006800F05F
:105730000C0008282CD1FFE743F60400C4F2020055
:10574000006810F4800F23D1FFE743F60000C4F295
:105750000200006800F002000021B1EB500F09D0F8
:10576000FFE70698C068012804D0FFE701208DF804
:105770001F003EE243F60000C4F20200016821F07F
:10578000F801069A126941EAC2010160FFE759E097
:105790000698C068002830D0FFE70020C4F24720F8
:1057A00001210160FFF734F90590FFE743F600009F
:1057B000C4F20200006800F002000021B1EB500FBB
:1057C0000ED1FFE7FFF724F9DDF814E0A0EB0E009F
:1057D000032804D3FFE703208DF81F0009E2E5E763
:1057E00043F60000C4F20200016821F0F801069AB5
:1057F000126941EAC201016023E00020C4F247209F
:1058000000210160FFF704F90590FFE743F600006F
:10581000C4F20200006800F002000021B1EB500F5A
:105820000ED0FFE7FFF7F4F8DDF814E0A0EB0E0070
:10583000032804D3FFE703208DF81F00D9E1E5E733
:10584000FFE7FFE7FFE7069800680007002850D54C
:10585000FFE706984069002825D0FFE740F6806002
:10586000C4F2472001210160FFF7D2F80590FFE75D
:1058700043F67400C4F20200006800F00200002148
:10588000B1EB500F0ED1FFE7FFF7C2F8DDF814E0DF
:10589000A0EB0E00032804D3FFE703208DF81F00C0
:1058A000A7E1E5E724E040F68060C4F2472000214C
:1058B0000160FFF7ADF80590FFE743F67400C4F20E
:1058C0000200006800F002000021B1EB500F0ED082
:1058D000FFE7FFF79DF8DDF814E0A0EB0E000328CA
:1058E00004D3FFE703208DF81F0082E1E5E7FFE71F
:1058F000FFE7069800684007002840F1D680FFE7E0
:1059000000208DF8130043F64000C4F20200006846
:1059100010F0805F16D1FFE7FFE70020039043F609
:105920004000C4F20200016841F08051016000684B
:1059300000F08050039003980190FFE701208DF85C
:105940001300FFE747F20000C4F20000006810F403
:10595000807F24D1FFE747F20000C4F20000016815
:1059600041F480710160FFF753F80590FFE747F2BB
:105970000000C4F20000006810F4807F0ED1FFE741
:10598000FFF746F8DDF814E0A0EB0E00032804D37F
:10599000FFE703208DF81F002BE1E8E7FFE7FFE7B3
:1059A00006988068012809D1FFE743F67000C4F229
:1059B0000200016841F0010101601FE00698806863
:1059C00005280DD1FFE743F67000C4F2020001681C
:1059D00041F004010160016841F0010101600CE047
:1059E00043F67000C4F20200016821F00101016079
:1059F000016821F004010160FFE7FFE7FFE7069877
:105A00008068002821D0FFE7FFF702F80590FFE744
:105A100043F67000C4F20200006800F002000021AA
:105A2000B1EB500F10D1FFE7FEF7F2FFDDF814E005
:105A3000A0EB0E0041F2893E704504D3FFE703203E
:105A40008DF81F00D5E0E3E720E0FEF7E1FF0590C9
:105A5000FFE743F67000C4F20200006800F00200A5
:105A60000021B1EB500F10D0FFE7FEF7D1FFDDF8BA
:105A700014E0A0EB0E0041F2893E704504D3FFE72D
:105A800003208DF81F00B4E0E3E7FFE79DF8130063
:105A9000012809D1FFE743F64000C4F20200016883
:105AA00021F080510160FFE7FFE706988069002838
:105AB00000F09B80FFE743F60800C4F20200006894
:105AC00000F00C00082800F08B80FFE70698806942
:105AD000022860D1FFE76020C4F247200021016066
